HBILPMT    20170404A04260000018959700000000R                                         
D0000001164890870051650399   2005JAGADIRI-JSPNIB1701-1701000063          System.Byte[]
D0000002164890870051650399   2005JAGADIRI-JSPNIB1702-1702001138          System.Byte[]
D0000003164890870051650399   2005JAGADIRI-JSPNIB1703-1703008565          System.Byte[]
D0000004164890870051650399   2005JAGADIRI-JSPNIB1704-1704011615          System.Byte[]
D0000005164890870051650399   2005JAGADIRI-JSPNIB1705-1705001956          System.Byte[]
D0000006164201910446389149   1810JAGADIRI-JSPNIB1701-1701000065          System.Byte[]
D0000007164201910446389149   1810JAGADIRI-JSPNIB1702-1702001140          System.Byte[]
D0000008164201910446389149   1810JAGADIRI-JSPNIB1703-1703008567          System.Byte[]
D0000009164201910446389149   1810JAGADIRI-JSPNIB1704-1704011617          System.Byte[]
D0000010164201910446389149   1810JAGADIRI-JSPNIB1705-1705001988          System.Byte[]
D0000011164890870066813065   2003JAGADIRI-JSPNIB1702-1702000124          System.Byte[]
D0000012164890870066813065   2003JAGADIRI-JSPNIB1703-1703007551          System.Byte[]
D0000013164890870066813065   2003JAGADIRI-JSPNIB1704-1704010601          System.Byte[]
D0000014164890870066813065   2003JAGADIRI-JSPNIB1705-1705002014          System.Byte[]
D0000015164890870053869088   1707JAGADIRI-JSPNIB1703-1703001253          System.Byte[]
D0000016164890870053869088   1707JAGADIRI-JSPNIB1704-1704004303          System.Byte[]
D0000017164890870053869088   1707JAGADIRI-JSPNIB1705-1705002116          System.Byte[]
D0000018164201920143259222   2004JAGADIRI-JSPNIB1703-1703001318          System.Byte[]
D0000019164201920143259222   2004JAGADIRI-JSPNIB1704-1704004368          System.Byte[]
D0000020164201920143259222   2004JAGADIRI-JSPNIB1705-1705002194          System.Byte[]
D0000021164890870054207528   1809JAGADIRI-JSPNIB1703-1703001322          System.Byte[]
D0000022164890870054207528   1809JAGADIRI-JSPNIB1704-1704004372          System.Byte[]
D0000023164890870054207528   1809JAGADIRI-JSPNIB1705-1705002198          System.Byte[]
D0000024164890870057492796   1610JAGADIRI-JANIB1701-1701000073           System.Byte[]
D0000025164890870057492796   1610JAGADIRI-JANIB1702-1702001148           System.Byte[]
D0000026164890870057492796   1610JAGADIRI-JANIB1703-1703008575           System.Byte[]
D0000027164890870057492796   1610JAGADIRI-JANIB1704-1704011625           System.Byte[]
D0000028164890870057492796   1610JAGADIRI-JANIB1705-1705002219           System.Byte[]
D0000029164890870053131117   2004JAGADIRI-JSPNIB1701-1701000074          System.Byte[]
D0000030164890870053131117   2004JAGADIRI-JSPNIB1702-1702001149          System.Byte[]
D0000031164890870053131117   2004JAGADIRI-JSPNIB1703-1703008576          System.Byte[]
D0000032164890870053131117   2004JAGADIRI-JSPNIB1704-1704011626          System.Byte[]
D0000033164890870053131117   2004JAGADIRI-JSPNIB1705-1705002235          System.Byte[]
D0000034164890870053131117   2004JAGADIRI-JANIB1701-1701000075           System.Byte[]
D0000035164890870053131117   2004JAGADIRI-JANIB1702-1702001150           System.Byte[]
D0000036164890870053131117   2004JAGADIRI-JANIB1703-1703008577           System.Byte[]
D0000037164890870053131117   2004JAGADIRI-JANIB1704-1704011627           System.Byte[]
D0000038164890870053131117   2004JAGADIRI-JANIB1705-1705002237           System.Byte[]
D0000039164201920072801325   2002JAGADIRI-JSPNIB1703-1703001355          System.Byte[]
D0000040164201920072801325   2002JAGADIRI-JSPNIB1704-1704004405          System.Byte[]
D0000041164201920072801325   2002JAGADIRI-JSPNIB1705-1705002239          System.Byte[]
D0000042164201920116427806   1906JAGADIRI-JANIB1702-1702000145           System.Byte[]
D0000043164201920116427806   1906JAGADIRI-JANIB1703-1703007572           System.Byte[]
D0000044164201920116427806   1906JAGADIRI-JANIB1704-1704010622           System.Byte[]
D0000045164201920116427806   1906JAGADIRI-JANIB1705-1705002271           System.Byte[]
D0000046164890870055714159   1803JAGADIRI-JSPNIB1701-1701000078          System.Byte[]
D0000047164890870055714159   1803JAGADIRI-JSPNIB1702-1702001153          System.Byte[]
D0000048164890870055714159   1803JAGADIRI-JSPNIB1703-1703008580          System.Byte[]
D0000049164890870055714159   1803JAGADIRI-JSPNIB1704-1704011630          System.Byte[]
D0000050164890870055714159   1803JAGADIRI-JSPNIB1705-1705002299          System.Byte[]
D0000051164201910355377812   1708JAGADIRI-JANIB1704-1704000666           System.Byte[]
D0000052164201910355377812   1708JAGADIRI-JANIB1705-1705002420           System.Byte[]
D0000053165242610050688830   1908JAGADIRI-JSPNIB1612-1612000271          System.Byte[]
D0000054165242610050688830   1908JAGADIRI-JSPNIB1712-1712000026          System.Byte[]
D0000055164201920072574203   1910JAGADIRI-JANIB1702-1702000163           System.Byte[]
D0000056164201920072574203   1910JAGADIRI-JANIB1703-1703007590           System.Byte[]
D0000057164201920072574203   1910JAGADIRI-JANIB1704-1704010640           System.Byte[]
D0000058164201920072574203   1910JAGADIRI-JANIB1705-1705002639           System.Byte[]
D0000059164890870055919212   2001JAGADIRI-JANIB1703-1703001599           System.Byte[]
D0000060164890870055919212   2001JAGADIRI-JANIB1704-1704004649           System.Byte[]
D0000061164890870055919212   2001JAGADIRI-JANIB1705-1705002666           System.Byte[]
D0000062164890870055919212   2001JAGADIRI-JANIB1703-1703001600           System.Byte[]
D0000063164890870055919212   2001JAGADIRI-JANIB1704-1704004650           System.Byte[]
D0000064164890870055919212   2001JAGADIRI-JANIB1705-1705002667           System.Byte[]
D0000065164201920119923249   1911JAGADIRI-JSPNIB1701-1701000087          System.Byte[]
D0000066164201920119923249   1911JAGADIRI-JSPNIB1702-1702001162          System.Byte[]
D0000067164201920119923249   1911JAGADIRI-JSPNIB1703-1703008589          System.Byte[]
D0000068164201920119923249   1911JAGADIRI-JSPNIB1704-1704011639          System.Byte[]
D0000069164201920119923249   1911JAGADIRI-JSPNIB1705-1705002673          System.Byte[]
D0000070164201920136790944   1910JAGADIRI-JSPNIB1703-1703001658          System.Byte[]
D0000071164201920136790944   1910JAGADIRI-JSPNIB1704-1704004708          System.Byte[]
D0000072164201920136790944   1910JAGADIRI-JSPNIB1705-1705002736          System.Byte[]
D0000073164201920073452870   1908JAGADIRI-JSPNIB1703-1703001777          System.Byte[]
D0000074164201920073452870   1908JAGADIRI-JSPNIB1704-1704004827          System.Byte[]
D0000075164201920073452870   1908JAGADIRI-JSPNIB1705-1705002959          System.Byte[]
D0000076164201910116598565   1703JAGADIRI-JSPNIB1703-1703001780          System.Byte[]
D0000077164201910116598565   1703JAGADIRI-JSPNIB1704-1704004830          System.Byte[]
D0000078164201910116598565   1703JAGADIRI-JSPNIB1705-1705002962          System.Byte[]
D0000079164201920113550402   2002JAGADIRI-JSPNIB1703-1703001862          System.Byte[]
D0000080164201920113550402   2002JAGADIRI-JSPNIB1704-1704004912          System.Byte[]
D0000081164201920113550402   2002JAGADIRI-JSPNIB1705-1705003051          System.Byte[]
D0000082164890870050568030   1911JAGADIRI-JSPNIB1703-1703001928          System.Byte[]
D0000083164890870050568030   1911JAGADIRI-JSPNIB1704-1704004978          System.Byte[]
D0000084164890870050568030   1911JAGADIRI-JSPNIB1705-1705003125          System.Byte[]
D0000085164201920106227158   1611JAGADIRI-JSPNIB1703-1703001946          System.Byte[]
D0000086164201920106227158   1611JAGADIRI-JSPNIB1704-1704004996          System.Byte[]
D0000087164201920106227158   1611JAGADIRI-JSPNIB1705-1705003149          System.Byte[]
D0000088164890870059861428   1907JAGADIRI-JSPNIB1612-1612000047          System.Byte[]
D0000089164890870059861428   1907JAGADIRI-JSPNIB1701-1701000558          System.Byte[]
D0000090164890870059861428   1907JAGADIRI-JSPNIB1702-1702001633          System.Byte[]
D0000091164890870059861428   1907JAGADIRI-JSPNIB1703-1703009060          System.Byte[]
D0000092164890870059861428   1907JAGADIRI-JSPNIB1704-1704012110          System.Byte[]
D0000093164890870059861428   1907JAGADIRI-JSPNIB1705-1705003209          System.Byte[]
D0000094164890870052385318   1910JAGADIRI-JSPNIB1704-1704000886          System.Byte[]
D0000095164890870052385318   1910JAGADIRI-JSPNIB1705-1705003288          System.Byte[]
D0000096164201920076873809   1903JAGADIRI-JSPNIB1703-1703002038          System.Byte[]
D0000097164201920076873809   1903JAGADIRI-JSPNIB1704-1704005088          System.Byte[]
D0000098164201920076873809   1903JAGADIRI-JSPNIB1705-1705003379          System.Byte[]
D0000099164890870053719101   1712JAGADIRI-JSPNIB1703-1703002057          System.Byte[]
D0000100164890870053719101   1712JAGADIRI-JSPNIB1704-1704005107          System.Byte[]
D0000101164890870053719101   1712JAGADIRI-JSPNIB1705-1705003399          System.Byte[]
D0000102164201920076545092   2003JAGADIRI-JSPNIB1704-1704001011          System.Byte[]
D0000103164201920076545092   2003JAGADIRI-JSPNIB1705-1705003771          System.Byte[]
D0000104164890870055001243   1907JAGADIRI-JSPNIB1702-1702000244          System.Byte[]
D0000105164890870055001243   1907JAGADIRI-JSPNIB1703-1703007671          System.Byte[]
D0000106164890870055001243   1907JAGADIRI-JSPNIB1704-1704010721          System.Byte[]
D0000107164890870055001243   1907JAGADIRI-JSPNIB1705-1705003781          System.Byte[]
D0000108164784870070541032   1903JAGADIRI-JSPNIB1703-1703002308          System.Byte[]
D0000109164784870070541032   1903JAGADIRI-JSPNIB1704-1704005358          System.Byte[]
D0000110164784870070541032   1903JAGADIRI-JSPNIB1705-1705003841          System.Byte[]
D0000111164201920111050082   1910JAGADIRI-JSPNIB1703-1703002320          System.Byte[]
D0000112164201920111050082   1910JAGADIRI-JSPNIB1704-1704005370          System.Byte[]
D0000113164201920111050082   1910JAGADIRI-JSPNIB1705-1705003855          System.Byte[]
D0000114164201920096578594   2102JAGADIRI-JSPNIB1703-1703002325          System.Byte[]
D0000115164201920096578594   2102JAGADIRI-JSPNIB1704-1704005375          System.Byte[]
D0000116164201920096578594   2102JAGADIRI-JSPNIB1705-1705003861          System.Byte[]
D0000117164201920102807987   2011JAGADIRI-JSPNIB1703-1703002386          System.Byte[]
D0000118164201920102807987   2011JAGADIRI-JSPNIB1704-1704005436          System.Byte[]
D0000119164201920102807987   2011JAGADIRI-JSPNIB1705-1705003924          System.Byte[]
D0000120164890870051682731   1906JAGADIRI-JSPNIB1702-1702000263          System.Byte[]
D0000121164890870051682731   1906JAGADIRI-JSPNIB1703-1703007690          System.Byte[]
D0000122164890870051682731   1906JAGADIRI-JSPNIB1704-1704010740          System.Byte[]
D0000123164890870051682731   1906JAGADIRI-JSPNIB1705-1705004092          System.Byte[]
D0000124164890870053251162   1805JAGADIRI-JJP71702-1702000266            System.Byte[]
D0000125164890870053251162   1805JAGADIRI-JJP71703-1703007693            System.Byte[]
D0000126164890870053251162   1805JAGADIRI-JJP71704-1704010743            System.Byte[]
D0000127164890870053251162   1805JAGADIRI-JJP71705-1705004116            System.Byte[]
D0000128164890870053251162   1805JAGADIRI-JJP71702-1702000267            System.Byte[]
D0000129164890870053251162   1805JAGADIRI-JJP71703-1703007694            System.Byte[]
D0000130164890870053251162   1805JAGADIRI-JJP71704-1704010744            System.Byte[]
D0000131164890870053251162   1805JAGADIRI-JJP71705-1705004117            System.Byte[]
D0000132164201940052729452   2102JAGADIRI-JSPNIB1703-1703002620          System.Byte[]
D0000133164201940052729452   2102JAGADIRI-JSPNIB1704-1704005670          System.Byte[]
D0000134164201940052729452   2102JAGADIRI-JSPNIB1705-1705004189          System.Byte[]
D0000135164201920137285654   2103JAGADIRI-JSPNIB1612-1612000067          System.Byte[]
D0000136164201920137285654   2103JAGADIRI-JSPNIB1701-1701000578          System.Byte[]
D0000137164201920137285654   2103JAGADIRI-JSPNIB1702-1702001653          System.Byte[]
D0000138164201920137285654   2103JAGADIRI-JSPNIB1703-1703009080          System.Byte[]
D0000139164201920137285654   2103JAGADIRI-JSPNIB1704-1704012130          System.Byte[]
D0000140164201920137285654   2103JAGADIRI-JSPNIB1705-1705004221          System.Byte[]
D0000141164890870058989931   1710JAGADIRI-JSPNIB1702-1702000274          System.Byte[]
D0000142164890870058989931   1710JAGADIRI-JSPNIB1703-1703007701          System.Byte[]
D0000143164890870058989931   1710JAGADIRI-JSPNIB1704-1704010751          System.Byte[]
D0000144164890870058989931   1710JAGADIRI-JSPNIB1705-1705004249          System.Byte[]
D0000145164201910099604836   1807JAGADIRI-JSPNIB1701-1701000144          System.Byte[]
D0000146164201910099604836   1807JAGADIRI-JSPNIB1702-1702001219          System.Byte[]
D0000147164201910099604836   1807JAGADIRI-JSPNIB1703-1703008646          System.Byte[]
D0000148164201910099604836   1807JAGADIRI-JSPNIB1704-1704011696          System.Byte[]
D0000149164201910099604836   1807JAGADIRI-JSPNIB1705-1705004442          System.Byte[]
D0000150164201920097299117   2103JAGADIRI-JSPNIB1703-1703002736          System.Byte[]
D0000151164201920097299117   2103JAGADIRI-JSPNIB1704-1704005786          System.Byte[]
D0000152164201920097299117   2103JAGADIRI-JSPNIB1705-1705004453          System.Byte[]
D0000153164201920097299117   2103JAGADIRI-JSPNIB1703-1703002739          System.Byte[]
D0000154164201920097299117   2103JAGADIRI-JSPNIB1704-1704005789          System.Byte[]
D0000155164201920097299117   2103JAGADIRI-JSPNIB1705-1705004459          System.Byte[]
D0000156164890870053092293   1805JAGADIRI-JSK1702-1702000298             System.Byte[]
D0000157164890870053092293   1805JAGADIRI-JSK1703-1703007725             System.Byte[]
D0000158164890870053092293   1805JAGADIRI-JSK1704-1704010775             System.Byte[]
D0000159164890870053092293   1805JAGADIRI-JSK1705-1705004698             System.Byte[]
D0000160165242610051616772   1805JAGADIRI-JSK1703-1703002957             System.Byte[]
D0000161165242610051616772   1805JAGADIRI-JSK1704-1704006007             System.Byte[]
D0000162165242610051616772   1805JAGADIRI-JSK1705-1705004717             System.Byte[]
D0000163164890870061461407   2101JAGADIRI-JJP51703-1703002968            System.Byte[]
D0000164164890870061461407   2101JAGADIRI-JJP51704-1704006018            System.Byte[]
D0000165164890870061461407   2101JAGADIRI-JJP51705-1705004732            System.Byte[]
D0000166164201920062198914   2109JAGADIRI-JSPNIB1704-1704001222          System.Byte[]
D0000167164201920062198914   2109JAGADIRI-JSPNIB1705-1705004896          System.Byte[]
D0000168164890870056933915   2001JAGADIRI-JSK1703-1703003083             System.Byte[]
D0000169164890870056933915   2001JAGADIRI-JSK1704-1704006133             System.Byte[]
D0000170164890870056933915   2001JAGADIRI-JSK1705-1705004913             System.Byte[]
D0000171164201910083399054   1907JAGADIRI-JSPNIB1704-1704001265          System.Byte[]
D0000172164201910083399054   1907JAGADIRI-JSPNIB1705-1705004948          System.Byte[]
D0000173164201910375158044   1711JAGADIRI-JSK1701-1701000164             System.Byte[]
D0000174164201910375158044   1711JAGADIRI-JSK1702-1702001239             System.Byte[]
D0000175164201910375158044   1711JAGADIRI-JSK1703-1703008666             System.Byte[]
D0000176164201910375158044   1711JAGADIRI-JSK1704-1704011716             System.Byte[]
D0000177164201910375158044   1711JAGADIRI-JSK1705-1705004982             System.Byte[]
D0000178164201920128778766   1908JAGADIRI-JSPNIB1701-1701000185          System.Byte[]
D0000179164201920128778766   1908JAGADIRI-JSPNIB1702-1702001260          System.Byte[]
D0000180164201920128778766   1908JAGADIRI-JSPNIB1703-1703008687          System.Byte[]
D0000181164201920128778766   1908JAGADIRI-JSPNIB1704-1704011737          System.Byte[]
D0000182164201920128778766   1908JAGADIRI-JSPNIB1705-1705005254          System.Byte[]
D0000183164890870058828220   1810JAGADIRI-JSPNIB1701-1701000186          System.Byte[]
D0000184164890870058828220   1810JAGADIRI-JSPNIB1702-1702001261          System.Byte[]
D0000185164890870058828220   1810JAGADIRI-JSPNIB1703-1703008688          System.Byte[]
D0000186164890870058828220   1810JAGADIRI-JSPNIB1704-1704011738          System.Byte[]
D0000187164890870058828220   1810JAGADIRI-JSPNIB1705-1705005255          System.Byte[]
D0000188164201910108011742   1707JAGADIRI-JSPNIB1702-1702000353          System.Byte[]
D0000189164201910108011742   1707JAGADIRI-JSPNIB1703-1703007780          System.Byte[]
D0000190164201910108011742   1707JAGADIRI-JSPNIB1704-1704010830          System.Byte[]
D0000191164201910108011742   1707JAGADIRI-JSPNIB1705-1705005422          System.Byte[]
D0000192164201920123044727   2105JAGADIRI-JSPNIB1702-1702000357          System.Byte[]
D0000193164201920123044727   2105JAGADIRI-JSPNIB1703-1703007784          System.Byte[]
D0000194164201920123044727   2105JAGADIRI-JSPNIB1704-1704010834          System.Byte[]
D0000195164201920123044727   2105JAGADIRI-JSPNIB1705-1705005468          System.Byte[]
D0000196164201910420619099   1901JAGADIRI-JSPNIB1703-1703003481          System.Byte[]
D0000197164201910420619099   1901JAGADIRI-JSPNIB1704-1704006531          System.Byte[]
D0000198164201910420619099   1901JAGADIRI-JSPNIB1705-1705005586          System.Byte[]
D0000199164201920140446616   2009JAGADIRI-JJP71702-1702000372            System.Byte[]
D0000200164201920140446616   2009JAGADIRI-JJP71703-1703007799            System.Byte[]
D0000201164201920140446616   2009JAGADIRI-JJP71704-1704010849            System.Byte[]
D0000202164201920140446616   2009JAGADIRI-JJP71705-1705005690            System.Byte[]
D0000203164201920066319011   2103JAGADIRI-JSPNIB1703-1703003581          System.Byte[]
D0000204164201920066319011   2103JAGADIRI-JSPNIB1704-1704006631          System.Byte[]
D0000205164201920066319011   2103JAGADIRI-JSPNIB1705-1705005803          System.Byte[]
D0000206164201920117159481   2109JAGADIRI-JSPNIB1703-1703003718          System.Byte[]
D0000207164201920117159481   2109JAGADIRI-JSPNIB1704-1704006768          System.Byte[]
D0000208164201920117159481   2109JAGADIRI-JSPNIB1705-1705005964          System.Byte[]
D0000209164201910326169595   2006JAGADIRI-JSPNIB1701-1701000215          System.Byte[]
D0000210164201910326169595   2006JAGADIRI-JSPNIB1702-1702001290          System.Byte[]
D0000211164201910326169595   2006JAGADIRI-JSPNIB1703-1703008717          System.Byte[]
D0000212164201910326169595   2006JAGADIRI-JSPNIB1704-1704011767          System.Byte[]
D0000213164201910326169595   2006JAGADIRI-JSPNIB1705-1705006050          System.Byte[]
D0000214164201920112620370   2105JAGADIRI-JSPNIB1703-1703003780          System.Byte[]
D0000215164201920112620370   2105JAGADIRI-JSPNIB1704-1704006830          System.Byte[]
D0000216164201920112620370   2105JAGADIRI-JSPNIB1705-1705006051          System.Byte[]
D0000217165242610054869477   2006JAGADIRI-JSPNIB1703-1703003825          System.Byte[]
D0000218165242610054869477   2006JAGADIRI-JSPNIB1704-1704006875          System.Byte[]
D0000219165242610054869477   2006JAGADIRI-JSPNIB1705-1705006107          System.Byte[]
D0000220164201920136183009   1910JAGADIRI-JSPNIB1703-1703003861          System.Byte[]
D0000221164201920136183009   1910JAGADIRI-JSPNIB1704-1704006911          System.Byte[]
D0000222164201920136183009   1910JAGADIRI-JSPNIB1705-1705006161          System.Byte[]
D0000223164201920075478170   2105JAGADIRI-JSK1612-1612000136             System.Byte[]
D0000224164201920075478170   2105JAGADIRI-JSK1701-1701000647             System.Byte[]
D0000225164201920075478170   2105JAGADIRI-JSK1702-1702001722             System.Byte[]
D0000226164201920075478170   2105JAGADIRI-JSK1703-1703009149             System.Byte[]
D0000227164201920075478170   2105JAGADIRI-JSK1704-1704012199             System.Byte[]
D0000228164201920075478170   2105JAGADIRI-JSK1705-1705006321             System.Byte[]
D0000229164201920063379554   1903JAGADIRI-JSPNIB1703-1703004127          System.Byte[]
D0000230164201920063379554   1903JAGADIRI-JSPNIB1704-1704007177          System.Byte[]
D0000231164201920063379554   1903JAGADIRI-JSPNIB1705-1705006497          System.Byte[]
D0000232164201920141916260   2105JAGADIRI-JSPNIB1701-1701000226          System.Byte[]
D0000233164201920141916260   2105JAGADIRI-JSPNIB1702-1702001301          System.Byte[]
D0000234164201920141916260   2105JAGADIRI-JSPNIB1703-1703008728          System.Byte[]
D0000235164201920141916260   2105JAGADIRI-JSPNIB1704-1704011778          System.Byte[]
D0000236164201920141916260   2105JAGADIRI-JSPNIB1705-1705006509          System.Byte[]
D0000237164890870055692280   1805JAGADIRI-JSK1612-1612000149             System.Byte[]
D0000238164890870055692280   1805JAGADIRI-JSK1701-1701000660             System.Byte[]
D0000239164890870055692280   1805JAGADIRI-JSK1702-1702001735             System.Byte[]
D0000240164890870055692280   1805JAGADIRI-JSK1703-1703009162             System.Byte[]
D0000241164890870055692280   1805JAGADIRI-JSK1704-1704012212             System.Byte[]
D0000242164890870055692280   1805JAGADIRI-JSK1705-1705006627             System.Byte[]
D0000243164201920073847616   2012JAGADIRI-JSPNIB1703-1703004262          System.Byte[]
D0000244164201920073847616   2012JAGADIRI-JSPNIB1704-1704007312          System.Byte[]
D0000245164201920073847616   2012JAGADIRI-JSPNIB1705-1705006661          System.Byte[]
D0000246164890870057985971   1805JAGADIRI-JSPNIB1703-1703004281          System.Byte[]
D0000247164890870057985971   1805JAGADIRI-JSPNIB1704-1704007331          System.Byte[]
D0000248164890870057985971   1805JAGADIRI-JSPNIB1705-1705006690          System.Byte[]
D0000249164890870067672841   2106JAGADIRI-JSPNIB1704-1704001521          System.Byte[]
D0000250164890870067672841   2106JAGADIRI-JSPNIB1705-1705006717          System.Byte[]
D0000251164201920139893679   1709JAGADIRI-JSPNIB1703-1703004300          System.Byte[]
D0000252164201920139893679   1709JAGADIRI-JSPNIB1704-1704007350          System.Byte[]
D0000253164201920139893679   1709JAGADIRI-JSPNIB1705-1705006720          System.Byte[]
D0000254164201910289087065   1702JAGADIRI-JSK1701-1701000243             System.Byte[]
D0000255164201910289087065   1702JAGADIRI-JSK1702-1702001318             System.Byte[]
D0000256164201910289087065   1702JAGADIRI-JSK1703-1703008745             System.Byte[]
D0000257164201910289087065   1702JAGADIRI-JSK1704-1704011795             System.Byte[]
D0000258164201910289087065   1702JAGADIRI-JSK1705-1705006782             System.Byte[]
D0000259164201920064210261   2004JAGADIRI-JSK1704-1704001622             System.Byte[]
D0000260164201920064210261   2004JAGADIRI-JSK1705-1705006853             System.Byte[]
D0000261164201910313096744   1611JAGADIRI-JSK1702-1702000480             System.Byte[]
D0000262164201910313096744   1611JAGADIRI-JSK1703-1703007907             System.Byte[]
D0000263164201910313096744   1611JAGADIRI-JSK1704-1704010957             System.Byte[]
D0000264164201910313096744   1611JAGADIRI-JSK1705-1705006868             System.Byte[]
D0000265164201920145788335   2001JAGADIRI-JSK1703-1703004358             System.Byte[]
D0000266164201920145788335   2001JAGADIRI-JSK1704-1704007408             System.Byte[]
D0000267164201920145788335   2001JAGADIRI-JSK1705-1705006935             System.Byte[]
D0000268164201920109187474   2107JAGADIRI-JJP51702-1702000486            System.Byte[]
D0000269164201920109187474   2107JAGADIRI-JJP51703-1703007913            System.Byte[]
D0000270164201920109187474   2107JAGADIRI-JJP51704-1704010963            System.Byte[]
D0000271164201920109187474   2107JAGADIRI-JJP51705-1705006994            System.Byte[]
D0000272164201910353276396   1707JAGADIRI-JSPIB21701-1701000259          System.Byte[]
D0000273164201910353276396   1707JAGADIRI-JSPIB21702-1702001334          System.Byte[]
D0000274164201910353276396   1707JAGADIRI-JSPIB21703-1703008761          System.Byte[]
D0000275164201910353276396   1707JAGADIRI-JSPIB21704-1704011811          System.Byte[]
D0000276164201910353276396   1707JAGADIRI-JSPIB21705-1705007003          System.Byte[]
D0000277164201920061643951   1909JAGADIRI-JSK1701-1701000261             System.Byte[]
D0000278164201920061643951   1909JAGADIRI-JSK1702-1702001336             System.Byte[]
D0000279164201920061643951   1909JAGADIRI-JSK1703-1703008763             System.Byte[]
D0000280164201920061643951   1909JAGADIRI-JSK1704-1704011813             System.Byte[]
D0000281164201920061643951   1909JAGADIRI-JSK1705-1705007025             System.Byte[]
D0000282164201920107838730   2107JAGADIRI-JSPIB21703-1703004543          System.Byte[]
D0000283164201920107838730   2107JAGADIRI-JSPIB21704-1704007593          System.Byte[]
D0000284164201920107838730   2107JAGADIRI-JSPIB21705-1705007165          System.Byte[]
D0000285164890870053695210   2102JAGADIRI-JSPIB21703-1703004563          System.Byte[]
D0000286164890870053695210   2102JAGADIRI-JSPIB21704-1704007613          System.Byte[]
D0000287164890870053695210   2102JAGADIRI-JSPIB21705-1705007191          System.Byte[]
D0000288164201940086353196   2010JAGADIRI-JSK1702-1702000518             System.Byte[]
D0000289164201940086353196   2010JAGADIRI-JSK1703-1703007945             System.Byte[]
D0000290164201940086353196   2010JAGADIRI-JSK1704-1704010995             System.Byte[]
D0000291164201940086353196   2010JAGADIRI-JSK1705-1705007367             System.Byte[]
D0000292164890870053597721   2004JAGADIRI-JSK1702-1702000521             System.Byte[]
D0000293164890870053597721   2004JAGADIRI-JSK1703-1703007948             System.Byte[]
D0000294164890870053597721   2004JAGADIRI-JSK1704-1704010998             System.Byte[]
D0000295164890870053597721   2004JAGADIRI-JSK1705-1705007412             System.Byte[]
D0000296164890870056334858   1702JAGADIRI-JSPIB21703-1703004708          System.Byte[]
D0000297164890870056334858   1702JAGADIRI-JSPIB21704-1704007758          System.Byte[]
D0000298164890870056334858   1702JAGADIRI-JSPIB21705-1705007456          System.Byte[]
D0000299164201920147386906   1910JAGADIRI-JSK1701-1701000283             System.Byte[]
D0000300164201920147386906   1910JAGADIRI-JSK1702-1702001358             System.Byte[]
D0000301164201920147386906   1910JAGADIRI-JSK1703-1703008785             System.Byte[]
D0000302164201920147386906   1910JAGADIRI-JSK1704-1704011835             System.Byte[]
D0000303164201920147386906   1910JAGADIRI-JSK1705-1705007476             System.Byte[]
D0000304164201920053826168   1903JAGADIRI-JSK1701-1701000284             System.Byte[]
D0000305164201920053826168   1903JAGADIRI-JSK1702-1702001359             System.Byte[]
D0000306164201920053826168   1903JAGADIRI-JSK1703-1703008786             System.Byte[]
D0000307164201920053826168   1903JAGADIRI-JSK1704-1704011836             System.Byte[]
D0000308164201920053826168   1903JAGADIRI-JSK1705-1705007504             System.Byte[]
D0000309164890870058251522   1902JAGADIRI-JSPIB21703-1703004758          System.Byte[]
D0000310164890870058251522   1902JAGADIRI-JSPIB21704-1704007808          System.Byte[]
D0000311164890870058251522   1902JAGADIRI-JSPIB21705-1705007594          System.Byte[]
D0000312164890870069021617   2101JAGADIRI-JSK1612-1612000181             System.Byte[]
D0000313164890870069021617   2101JAGADIRI-JSK1701-1701000692             System.Byte[]
D0000314164890870069021617   2101JAGADIRI-JSK1702-1702001767             System.Byte[]
D0000315164890870069021617   2101JAGADIRI-JSK1703-1703009194             System.Byte[]
D0000316164890870069021617   2101JAGADIRI-JSK1704-1704012244             System.Byte[]
D0000317164890870069021617   2101JAGADIRI-JSK1705-1705007630             System.Byte[]
D0000318164201940070855370   2108JAGADIRI-JSPIB21703-1703004823          System.Byte[]
D0000319164201940070855370   2108JAGADIRI-JSPIB21704-1704007873          System.Byte[]
D0000320164201940070855370   2108JAGADIRI-JSPIB21705-1705007672          System.Byte[]
D0000321165242610054850717   2002JAGADIRI-JSK1703-1703004834             System.Byte[]
D0000322165242610054850717   2002JAGADIRI-JSK1704-1704007884             System.Byte[]
D0000323165242610054850717   2002JAGADIRI-JSK1705-1705007684             System.Byte[]
D0000324164890870067587361   2011JAGADIRI-JSK1702-1702000536             System.Byte[]
D0000325164890870067587361   2011JAGADIRI-JSK1703-1703007963             System.Byte[]
D0000326164890870067587361   2011JAGADIRI-JSK1704-1704011013             System.Byte[]
D0000327164890870067587361   2011JAGADIRI-JSK1705-1705007699             System.Byte[]
D0000328165242610053862226   2009JAGADIRI-JSPIB21703-1703004880          System.Byte[]
D0000329165242610053862226   2009JAGADIRI-JSPIB21704-1704007930          System.Byte[]
D0000330165242610053862226   2009JAGADIRI-JSPIB21705-1705007741          System.Byte[]
D0000331164784870070632369   2105JAGADIRI-JSPIB21703-1703004882          System.Byte[]
D0000332164784870070632369   2105JAGADIRI-JSPIB21704-1704007932          System.Byte[]
D0000333164784870070632369   2105JAGADIRI-JSPIB21705-1705007746          System.Byte[]
D0000334164201910107695081   1701JAGADIRI-JSK1701-1701000296             System.Byte[]
D0000335164201910107695081   1701JAGADIRI-JSK1702-1702001371             System.Byte[]
D0000336164201910107695081   1701JAGADIRI-JSK1703-1703008798             System.Byte[]
D0000337164201910107695081   1701JAGADIRI-JSK1704-1704011848             System.Byte[]
D0000338164201910107695081   1701JAGADIRI-JSK1705-1705007756             System.Byte[]
D0000339164890870056334858   1702JAGADIRI-JSK1702-1702000555             System.Byte[]
D0000340164890870056334858   1702JAGADIRI-JSK1703-1703007982             System.Byte[]
D0000341164890870056334858   1702JAGADIRI-JSK1704-1704011032             System.Byte[]
D0000342164890870056334858   1702JAGADIRI-JSK1705-1705007834             System.Byte[]
D0000343164201920063304321   2106JAGADIRI-JSK1703-1703004982             System.Byte[]
D0000344164201920063304321   2106JAGADIRI-JSK1704-1704008032             System.Byte[]
D0000345164201920063304321   2106JAGADIRI-JSK1705-1705007885             System.Byte[]
D0000346164201920051862397   1906JAGADIRI-JSK1703-1703005007             System.Byte[]
D0000347164201920051862397   1906JAGADIRI-JSK1704-1704008057             System.Byte[]
D0000348164201920051862397   1906JAGADIRI-JSK1705-1705007923             System.Byte[]
D0000349164201920115559542   2003JAGADIRI-JSPIB21701-1701000310          System.Byte[]
D0000350164201920115559542   2003JAGADIRI-JSPIB21702-1702001385          System.Byte[]
D0000351164201920115559542   2003JAGADIRI-JSPIB21703-1703008812          System.Byte[]
D0000352164201920115559542   2003JAGADIRI-JSPIB21704-1704011862          System.Byte[]
D0000353164201920115559542   2003JAGADIRI-JSPIB21705-1705007938          System.Byte[]
D0000354164262110060219302   2108JAGADIRI-JSPIB21701-1701000320          System.Byte[]
D0000355164262110060219302   2108JAGADIRI-JSPIB21702-1702001395          System.Byte[]
D0000356164262110060219302   2108JAGADIRI-JSPIB21703-1703008822          System.Byte[]
D0000357164262110060219302   2108JAGADIRI-JSPIB21704-1704011872          System.Byte[]
D0000358164262110060219302   2108JAGADIRI-JSPIB21705-1705008112          System.Byte[]
D0000359164201920119418869   2106JAGADIRI-JSPIB21702-1702000587          System.Byte[]
D0000360164201920119418869   2106JAGADIRI-JSPIB21703-1703008014          System.Byte[]
D0000361164201920119418869   2106JAGADIRI-JSPIB21704-1704011064          System.Byte[]
D0000362164201920119418869   2106JAGADIRI-JSPIB21705-1705008189          System.Byte[]
D0000363164890870056923072   1909JAGADIRI-JSK1702-1702000603             System.Byte[]
D0000364164890870056923072   1909JAGADIRI-JSK1703-1703008030             System.Byte[]
D0000365164890870056923072   1909JAGADIRI-JSK1704-1704011080             System.Byte[]
D0000366164890870056923072   1909JAGADIRI-JSK1705-1705008330             System.Byte[]
D0000367164890870055905039   2005JAGADIRI-JSPIB21612-1612000218          System.Byte[]
D0000368164890870055905039   2005JAGADIRI-JSPIB21701-1701000729          System.Byte[]
D0000369164890870055905039   2005JAGADIRI-JSPIB21702-1702001804          System.Byte[]
D0000370164890870055905039   2005JAGADIRI-JSPIB21703-1703009231          System.Byte[]
D0000371164890870055905039   2005JAGADIRI-JSPIB21704-1704012281          System.Byte[]
D0000372164890870055905039   2005JAGADIRI-JSPIB21705-1705008431          System.Byte[]
D0000373164201920121353591   2104JAGADIRI-JSPIB21702-1702000627          System.Byte[]
D0000374164201920121353591   2104JAGADIRI-JSPIB21703-1703008054          System.Byte[]
D0000375164201920121353591   2104JAGADIRI-JSPIB21704-1704011104          System.Byte[]
D0000376164201920121353591   2104JAGADIRI-JSPIB21705-1705008448          System.Byte[]
D0000377164262110060195387   2107JAGADIRI-JSPIB21702-1702000629          System.Byte[]
D0000378164262110060195387   2107JAGADIRI-JSPIB21703-1703008056          System.Byte[]
D0000379164262110060195387   2107JAGADIRI-JSPIB21704-1704011106          System.Byte[]
D0000380164262110060195387   2107JAGADIRI-JSPIB21705-1705008452          System.Byte[]
D0000381164201920065340455   2105JAGADIRI-JSPIB21703-1703005334          System.Byte[]
D0000382164201920065340455   2105JAGADIRI-JSPIB21704-1704008384          System.Byte[]
D0000383164201920065340455   2105JAGADIRI-JSPIB21705-1705008478          System.Byte[]
D0000384164201910393999544   1708JAGADIRI-JSPIB21702-1702000651          System.Byte[]
D0000385164201910393999544   1708JAGADIRI-JSPIB21703-1703008078          System.Byte[]
D0000386164201910393999544   1708JAGADIRI-JSPIB21704-1704011128          System.Byte[]
D0000387164201910393999544   1708JAGADIRI-JSPIB21705-1705008667          System.Byte[]
D0000388164201920118031879   1910JAGADIRI-JSPIB21704-1704002009          System.Byte[]
D0000389164201920118031879   1910JAGADIRI-JSPIB21705-1705008672          System.Byte[]
D0000390164201920134337060   2003JAGADIRI-JSK1702-1702000653             System.Byte[]
D0000391164201920134337060   2003JAGADIRI-JSK1703-1703008080             System.Byte[]
D0000392164201920134337060   2003JAGADIRI-JSK1704-1704011130             System.Byte[]
D0000393164201920134337060   2003JAGADIRI-JSK1705-1705008683             System.Byte[]
D0000394164201920053763825   2106JAGADIRI-JSPIB21701-1701000372          System.Byte[]
D0000395164201920053763825   2106JAGADIRI-JSPIB21702-1702001447          System.Byte[]
D0000396164201920053763825   2106JAGADIRI-JSPIB21703-1703008874          System.Byte[]
D0000397164201920053763825   2106JAGADIRI-JSPIB21704-1704011924          System.Byte[]
D0000398164201920053763825   2106JAGADIRI-JSPIB21705-1705008836          System.Byte[]
D0000399164784870070584834   2105JAGADIRI-JSPIB21703-1703005489          System.Byte[]
D0000400164784870070584834   2105JAGADIRI-JSPIB21704-1704008539          System.Byte[]
D0000401164784870070584834   2105JAGADIRI-JSPIB21705-1705008885          System.Byte[]
D0000402164201920089391385   1905JAGADIRI-JSPIB21612-1612000236          System.Byte[]
D0000403164201920089391385   1905JAGADIRI-JSPIB21701-1701000747          System.Byte[]
D0000404164201920089391385   1905JAGADIRI-JSPIB21702-1702001822          System.Byte[]
D0000405164201920089391385   1905JAGADIRI-JSPIB21703-1703009249          System.Byte[]
D0000406164201920089391385   1905JAGADIRI-JSPIB21704-1704012299          System.Byte[]
D0000407164201920089391385   1905JAGADIRI-JSPIB21705-1705008942          System.Byte[]
D0000408164201920053941033   2109JAGADIRI-JSK1612-1612000239             System.Byte[]
D0000409164201920053941033   2109JAGADIRI-JSK1701-1701000750             System.Byte[]
D0000410164201920053941033   2109JAGADIRI-JSK1702-1702001825             System.Byte[]
D0000411164201920053941033   2109JAGADIRI-JSK1703-1703009252             System.Byte[]
D0000412164201920053941033   2109JAGADIRI-JSK1704-1704012302             System.Byte[]
D0000413164201920053941033   2109JAGADIRI-JSK1705-1705008960             System.Byte[]
D0000414164201920090071240   1805JAGADIRI-JSPIB21702-1702000693          System.Byte[]
D0000415164201920090071240   1805JAGADIRI-JSPIB21703-1703008120          System.Byte[]
D0000416164201920090071240   1805JAGADIRI-JSPIB21704-1704011170          System.Byte[]
D0000417164201920090071240   1805JAGADIRI-JSPIB21705-1705009059          System.Byte[]
D0000418164890870066397242   2103JAGADIRI-JSK1703-1703005627             System.Byte[]
D0000419164890870066397242   2103JAGADIRI-JSK1704-1704008677             System.Byte[]
D0000420164890870066397242   2103JAGADIRI-JSK1705-1705009063             System.Byte[]
D0000421164201920062477995   2108JAGADIRI-JSPIB21612-1612000245          System.Byte[]
D0000422164201920062477995   2108JAGADIRI-JSPIB21701-1701000756          System.Byte[]
D0000423164201920062477995   2108JAGADIRI-JSPIB21702-1702001831          System.Byte[]
D0000424164201920062477995   2108JAGADIRI-JSPIB21703-1703009258          System.Byte[]
D0000425164201920062477995   2108JAGADIRI-JSPIB21704-1704012308          System.Byte[]
D0000426164201920062477995   2108JAGADIRI-JSPIB21705-1705009072          System.Byte[]
D0000427165242610051613993   2106JAGADIRI-JSK1702-1702000717             System.Byte[]
D0000428165242610051613993   2106JAGADIRI-JSK1703-1703008144             System.Byte[]
D0000429165242610051613993   2106JAGADIRI-JSK1704-1704011194             System.Byte[]
D0000430165242610051613993   2106JAGADIRI-JSK1705-1705009231             System.Byte[]
D0000431164201910330658732   1705JAGADIRI-JSK1703-1703005789             System.Byte[]
D0000432164201910330658732   1705JAGADIRI-JSK1704-1704008839             System.Byte[]
D0000433164201910330658732   1705JAGADIRI-JSK1705-1705009264             System.Byte[]
D0000434164201910330658732   1705JAGADIRI-JJP51703-1703005790            System.Byte[]
D0000435164201910330658732   1705JAGADIRI-JJP51704-1704008840            System.Byte[]
D0000436164201910330658732   1705JAGADIRI-JJP51705-1705009265            System.Byte[]
D0000437164201920114742115   2002JAGADIRI-JSK1701-1701000393             System.Byte[]
D0000438164201920114742115   2002JAGADIRI-JSK1702-1702001468             System.Byte[]
D0000439164201920114742115   2002JAGADIRI-JSK1703-1703008895             System.Byte[]
D0000440164201920114742115   2002JAGADIRI-JSK1704-1704011945             System.Byte[]
D0000441164201920114742115   2002JAGADIRI-JSK1705-1705009329             System.Byte[]
D0000442164890870050525436   1805JAGADIRI-JSPIB21704-1704002097          System.Byte[]
D0000443164890870050525436   1805JAGADIRI-JSPIB21705-1705009373          System.Byte[]
D0000444164201920063470023   2105JAGADIRI-JSPIB21701-1701000407          System.Byte[]
D0000445164201920063470023   2105JAGADIRI-JSPIB21702-1702001482          System.Byte[]
D0000446164201920063470023   2105JAGADIRI-JSPIB21703-1703008909          System.Byte[]
D0000447164201920063470023   2105JAGADIRI-JSPIB21704-1704011959          System.Byte[]
D0000448164201920063470023   2105JAGADIRI-JSPIB21705-1705009437          System.Byte[]
D0000449164201920088840119   1908JAGADIRI-JSK1701-1701000417             System.Byte[]
D0000450164201920088840119   1908JAGADIRI-JSK1702-1702001492             System.Byte[]
D0000451164201920088840119   1908JAGADIRI-JSK1703-1703008919             System.Byte[]
D0000452164201920088840119   1908JAGADIRI-JSK1704-1704011969             System.Byte[]
D0000453164201920088840119   1908JAGADIRI-JSK1705-1705009521             System.Byte[]
D0000454164201920059194892   2101JAGADIRI-JSPIB21703-1703005861          System.Byte[]
D0000455164201920059194892   2101JAGADIRI-JSPIB21704-1704008911          System.Byte[]
D0000456164201920059194892   2101JAGADIRI-JSPIB21705-1705009522          System.Byte[]
D0000457164201920110820691   1910JAGADIRI-JSPIB21704-1704002240          System.Byte[]
D0000458164201920110820691   1910JAGADIRI-JSPIB21705-1705009579          System.Byte[]
D0000459164890870050680363   2102JAGADIRI-JSPIB21703-1703005874          System.Byte[]
D0000460164890870050680363   2102JAGADIRI-JSPIB21704-1704008924          System.Byte[]
D0000461164890870050680363   2102JAGADIRI-JSPIB21705-1705009599          System.Byte[]
D0000462164201920146237936   2102JAGADIRI-JSPIB21701-1701000423          System.Byte[]
D0000463164201920146237936   2102JAGADIRI-JSPIB21702-1702001498          System.Byte[]
D0000464164201920146237936   2102JAGADIRI-JSPIB21703-1703008925          System.Byte[]
D0000465164201920146237936   2102JAGADIRI-JSPIB21704-1704011975          System.Byte[]
D0000466164201920146237936   2102JAGADIRI-JSPIB21705-1705009602          System.Byte[]
D0000467164890870058075624   2101JAGADIRI-JSPIB21703-1703005967          System.Byte[]
D0000468164890870058075624   2101JAGADIRI-JSPIB21704-1704009017          System.Byte[]
D0000469164890870058075624   2101JAGADIRI-JSPIB21705-1705009718          System.Byte[]
D0000470164890870058075624   2101JAGADIRI-JSPIB21703-1703005968          System.Byte[]
D0000471164890870058075624   2101JAGADIRI-JSPIB21704-1704009018          System.Byte[]
D0000472164890870058075624   2101JAGADIRI-JSPIB21705-1705009719          System.Byte[]
D0000473164201920095107858   2009JAGADIRI-JSK1701-1701000435             System.Byte[]
D0000474164201920095107858   2009JAGADIRI-JSK1702-1702001510             System.Byte[]
D0000475164201920095107858   2009JAGADIRI-JSK1703-1703008937             System.Byte[]
D0000476164201920095107858   2009JAGADIRI-JSK1704-1704011987             System.Byte[]
D0000477164201920095107858   2009JAGADIRI-JSK1705-1705009727             System.Byte[]
D0000478164201910453492638   2105JAGADIRI-JSPIB21701-1701000437          System.Byte[]
D0000479164201910453492638   2105JAGADIRI-JSPIB21702-1702001512          System.Byte[]
D0000480164201910453492638   2105JAGADIRI-JSPIB21703-1703008939          System.Byte[]
D0000481164201910453492638   2105JAGADIRI-JSPIB21704-1704011989          System.Byte[]
D0000482164201910453492638   2105JAGADIRI-JSPIB21705-1705009752          System.Byte[]
D0000483165242610052851204   1807JAGADIRI-JSK1703-1703006045             System.Byte[]
D0000484165242610052851204   1807JAGADIRI-JSK1704-1704009095             System.Byte[]
D0000485165242610052851204   1807JAGADIRI-JSK1705-1705009818             System.Byte[]
D0000486164201920074686286   1707JAGADIRI-JSK1701-1701000442             System.Byte[]
D0000487164201920074686286   1707JAGADIRI-JSK1702-1702001517             System.Byte[]
D0000488164201920074686286   1707JAGADIRI-JSK1703-1703008944             System.Byte[]
D0000489164201920074686286   1707JAGADIRI-JSK1704-1704011994             System.Byte[]
D0000490164201920074686286   1707JAGADIRI-JSK1705-1705009848             System.Byte[]
D0000491164890870064699094   2104JAGADIRI-JSPIB21702-1702000805          System.Byte[]
D0000492164890870064699094   2104JAGADIRI-JSPIB21703-1703008232          System.Byte[]
D0000493164890870064699094   2104JAGADIRI-JSPIB21704-1704011282          System.Byte[]
D0000494164890870064699094   2104JAGADIRI-JSPIB21705-1705009977          System.Byte[]
D0000495164201920149097865   2106JAGADIRI-JSPIB21702-1702000812          System.Byte[]
D0000496164201920149097865   2106JAGADIRI-JSPIB21703-1703008239          System.Byte[]
D0000497164201920149097865   2106JAGADIRI-JSPIB21704-1704011289          System.Byte[]
D0000498164201920149097865   2106JAGADIRI-JSPIB21705-1705010014          System.Byte[]
D0000499164201920085398707   2111JAGADIRI-JSPIB21701-1701000469          System.Byte[]
D0000500164201920085398707   2111JAGADIRI-JSPIB21702-1702001544          System.Byte[]
D0000501164201920085398707   2111JAGADIRI-JSPIB21703-1703008971          System.Byte[]
D0000502164201920085398707   2111JAGADIRI-JSPIB21704-1704012021          System.Byte[]
D0000503164201920085398707   2111JAGADIRI-JSPIB21705-1705010037          System.Byte[]
D0000504164201910388145004   1805JAGADIRI-JJP71703-1703006226            System.Byte[]
D0000505164201910388145004   1805JAGADIRI-JJP71704-1704009276            System.Byte[]
D0000506164201910388145004   1805JAGADIRI-JJP71705-1705010083            System.Byte[]
D0000507164890870057345069   2107JAGADIRI-JSK1703-1703006243             System.Byte[]
D0000508164890870057345069   2107JAGADIRI-JSK1704-1704009293             System.Byte[]
D0000509164890870057345069   2107JAGADIRI-JSK1705-1705010109             System.Byte[]
D0000510164201920108931724   2103JAGADIRI-JSPIB21701-1701000476          System.Byte[]
D0000511164201920108931724   2103JAGADIRI-JSPIB21702-1702001551          System.Byte[]
D0000512164201920108931724   2103JAGADIRI-JSPIB21703-1703008978          System.Byte[]
D0000513164201920108931724   2103JAGADIRI-JSPIB21704-1704012028          System.Byte[]
D0000514164201920108931724   2103JAGADIRI-JSPIB21705-1705010111          System.Byte[]
D0000515165242610051501495   2005JAGADIRI-JSPIB21703-1703006251          System.Byte[]
D0000516165242610051501495   2005JAGADIRI-JSPIB21704-1704009301          System.Byte[]
D0000517165242610051501495   2005JAGADIRI-JSPIB21705-1705010121          System.Byte[]
D0000518164201920086554134   2106JAGADIRI-JSPIB21703-1703006278          System.Byte[]
D0000519164201920086554134   2106JAGADIRI-JSPIB21704-1704009328          System.Byte[]
D0000520164201920086554134   2106JAGADIRI-JSPIB21705-1705010168          System.Byte[]
D0000521164201920052321690   2010JAGADIRI-JSPIB21703-1703006283          System.Byte[]
D0000522164201920052321690   2010JAGADIRI-JSPIB21704-1704009333          System.Byte[]
D0000523164201920052321690   2010JAGADIRI-JSPIB21705-1705010173          System.Byte[]
D0000524164201920110492475   2002JAGADIRI-JSK1703-1703006324             System.Byte[]
D0000525164201920110492475   2002JAGADIRI-JSK1704-1704009374             System.Byte[]
D0000526164201920110492475   2002JAGADIRI-JSK1705-1705010248             System.Byte[]
D0000527164262110060314756   2110JAGADIRI-JSK1702-1702000865             System.Byte[]
D0000528164262110060314756   2110JAGADIRI-JSK1703-1703008292             System.Byte[]
D0000529164262110060314756   2110JAGADIRI-JSK1704-1704011342             System.Byte[]
D0000530164262110060314756   2110JAGADIRI-JSK1705-1705010376             System.Byte[]
D0000531164201920084946050   1903JAGADIRI-JSPIB21702-1702000870          System.Byte[]
D0000532164201920084946050   1903JAGADIRI-JSPIB21703-1703008297          System.Byte[]
D0000533164201920084946050   1903JAGADIRI-JSPIB21704-1704011347          System.Byte[]
D0000534164201920084946050   1903JAGADIRI-JSPIB21705-1705010413          System.Byte[]
D0000535164890870050170423   1803JAGADIRI-JSK1704-1704002394             System.Byte[]
D0000536164890870050170423   1803JAGADIRI-JSK1705-1705010421             System.Byte[]
D0000537164201920087803639   2106JAGADIRI-JSPIB21703-1703006351          System.Byte[]
D0000538164201920087803639   2106JAGADIRI-JSPIB21704-1704009401          System.Byte[]
D0000539164201920087803639   2106JAGADIRI-JSPIB21705-1705010443          System.Byte[]
D0000540164201920101847760   2106JAGADIRI-JSPIB21703-1703006353          System.Byte[]
D0000541164201920101847760   2106JAGADIRI-JSPIB21704-1704009403          System.Byte[]
D0000542164201920101847760   2106JAGADIRI-JSPIB21705-1705010449          System.Byte[]
D0000543164201940086108061   2107JAGADIRI-JSK1704-1704002433             System.Byte[]
D0000544164201940086108061   2107JAGADIRI-JSK1705-1705010475             System.Byte[]
D0000545164890870069275650   2004JAGADIRI-JSPIB21704-1704002450          System.Byte[]
D0000546164890870069275650   2004JAGADIRI-JSPIB21705-1705010501          System.Byte[]
D0000547164890870063254206   2009JAGADIRI-JSPIB21703-1703006367          System.Byte[]
D0000548164890870063254206   2009JAGADIRI-JSPIB21704-1704009417          System.Byte[]
D0000549164890870063254206   2009JAGADIRI-JSPIB21705-1705010523          System.Byte[]
D0000550165242610053284793   2101JAGADIRI-JSPIB21703-1703006386          System.Byte[]
D0000551165242610053284793   2101JAGADIRI-JSPIB21704-1704009436          System.Byte[]
D0000552165242610053284793   2101JAGADIRI-JSPIB21705-1705010547          System.Byte[]
D0000553164201920086923909   2111JAGADIRI-JJP71703-1703006420            System.Byte[]
D0000554164201920086923909   2111JAGADIRI-JJP71704-1704009470            System.Byte[]
D0000555164201920086923909   2111JAGADIRI-JJP71705-1705010588            System.Byte[]
D0000556164784870070007695   2107JAGADIRI-JSPIB21703-1703006471          System.Byte[]
D0000557164784870070007695   2107JAGADIRI-JSPIB21704-1704009521          System.Byte[]
D0000558164784870070007695   2107JAGADIRI-JSPIB21705-1705010661          System.Byte[]
D0000559164890870054812848   2106JAGADIRI-JSPIB21703-1703006584          System.Byte[]
D0000560164890870054812848   2106JAGADIRI-JSPIB21704-1704009634          System.Byte[]
D0000561164890870054812848   2106JAGADIRI-JSPIB21705-1705010796          System.Byte[]
D0000562164201920083837862   2103JAGADIRI-JSPIB21702-1702000950          System.Byte[]
D0000563164201920083837862   2103JAGADIRI-JSPIB21703-1703008377          System.Byte[]
D0000564164201920083837862   2103JAGADIRI-JSPIB21704-1704011427          System.Byte[]
D0000565164201920083837862   2103JAGADIRI-JSPIB21705-1705010838          System.Byte[]
D0000566164890870065849391   2104JAGADIRI-JJP51702-1702000959            System.Byte[]
D0000567164890870065849391   2104JAGADIRI-JJP51703-1703008386            System.Byte[]
D0000568164890870065849391   2104JAGADIRI-JJP51704-1704011436            System.Byte[]
D0000569164890870065849391   2104JAGADIRI-JJP51705-1705010875            System.Byte[]
D0000570164201920124402890   2107JAGADIRI-JSPIB21801-1801000018          System.Byte[]
D0000571164890870054465472   2006JAGADIRI-JSK1703-1703006711             System.Byte[]
D0000572164890870054465472   2006JAGADIRI-JSK1704-1704009761             System.Byte[]
D0000573164890870054465472   2006JAGADIRI-JSK1705-1705010995             System.Byte[]
D0000574164201920101640470   2103JAGADIRI-JSPIB21702-1702001012          System.Byte[]
D0000575164201920101640470   2103JAGADIRI-JSPIB21703-1703008439          System.Byte[]
D0000576164201920101640470   2103JAGADIRI-JSPIB21704-1704011489          System.Byte[]
D0000577164201920101640470   2103JAGADIRI-JSPIB21705-1705011002          System.Byte[]
D0000578164890870052357093   2004JAGADIRI-JSPIB21703-1703006716          System.Byte[]
D0000579164890870052357093   2004JAGADIRI-JSPIB21704-1704009766          System.Byte[]
D0000580164890870052357093   2004JAGADIRI-JSPIB21705-1705011012          System.Byte[]
D0000581164262110060265768   2109JAGADIRI-JSK1702-1702001056             System.Byte[]
D0000582164262110060265768   2109JAGADIRI-JSK1703-1703008483             System.Byte[]
D0000583164262110060265768   2109JAGADIRI-JSK1704-1704011533             System.Byte[]
D0000584164262110060265768   2109JAGADIRI-JSK1705-1705011081             System.Byte[]
D0000585164890870058232589   1911JAGADIRI-JSK1703-1703006767             System.Byte[]
D0000586164890870058232589   1911JAGADIRI-JSK1704-1704009817             System.Byte[]
D0000587164890870058232589   1911JAGADIRI-JSK1705-1705011173             System.Byte[]
D0000588164201920139631384   1706JAGADIRI-JSK1704-1704002567             System.Byte[]
D0000589164201920139631384   1706JAGADIRI-JSK1705-1705011235             System.Byte[]
D0000590164890870059758541   1806JAGADIRI-JSPIB21704-1704002593          System.Byte[]
D0000591164890870059758541   1806JAGADIRI-JSPIB21705-1705011284          System.Byte[]
D0000592164201920110991112   2109JAGADIRI-JSPIB21703-1703006829          System.Byte[]
D0000593164201920110991112   2109JAGADIRI-JSPIB21704-1704009879          System.Byte[]
D0000594164201920110991112   2109JAGADIRI-JSPIB21705-1705011354          System.Byte[]
D0000595164262110060246818   2108JAGADIRI-JJP51703-1703006833            System.Byte[]
D0000596164262110060246818   2108JAGADIRI-JJP51704-1704009883            System.Byte[]
D0000597164262110060246818   2108JAGADIRI-JJP51705-1705011378            System.Byte[]
D0000598164201920057693622   2105JAGADIRI-JSK1704-1704002663             System.Byte[]
D0000599164201920057693622   2105JAGADIRI-JSK1705-1705011382             System.Byte[]
D0000600164890870060613503   2107JAGADIRI-JSK1703-1703006858             System.Byte[]
D0000601164890870060613503   2107JAGADIRI-JSK1704-1704009908             System.Byte[]
D0000602164890870060613503   2107JAGADIRI-JSK1705-1705011434             System.Byte[]
D0000603164890870054997706   1911JAGADIRI-JSK1703-1703006875             System.Byte[]
D0000604164890870054997706   1911JAGADIRI-JSK1704-1704009925             System.Byte[]
D0000605164890870054997706   1911JAGADIRI-JSK1705-1705011451             System.Byte[]
D0000606164890870054845988   2003JAGADIRI-JSPIB21703-1703006879          System.Byte[]
D0000607164890870054845988   2003JAGADIRI-JSPIB21704-1704009929          System.Byte[]
D0000608164890870054845988   2003JAGADIRI-JSPIB21705-1705011455          System.Byte[]
D0000609164890870056780720   1702JAGADIRI-JSK1703-1703006883             System.Byte[]
D0000610164890870056780720   1702JAGADIRI-JSK1704-1704009933             System.Byte[]
D0000611164890870056780720   1702JAGADIRI-JSK1705-1705011459             System.Byte[]
D0000612164201920060671243   2112JAGADIRI-JSPIB21703-1703006886          System.Byte[]
D0000613164201920060671243   2112JAGADIRI-JSPIB21704-1704009936          System.Byte[]
D0000614164201920060671243   2112JAGADIRI-JSPIB21705-1705011462          System.Byte[]
D0000615164201920080212937   2104JAGADIRI-JSPIB21703-1703006940          System.Byte[]
D0000616164201920080212937   2104JAGADIRI-JSPIB21704-1704009990          System.Byte[]
D0000617164201920080212937   2104JAGADIRI-JSPIB21705-1705011516          System.Byte[]
D0000618164201940082036845   2106JAGADIRI-JSPIB21703-1703006959          System.Byte[]
D0000619164201940082036845   2106JAGADIRI-JSPIB21704-1704010009          System.Byte[]
D0000620164201940082036845   2106JAGADIRI-JSPIB21705-1705011535          System.Byte[]
D0000621164890870057091705   2111JAGADIRI-JJP51703-1703007226            System.Byte[]
D0000622164890870057091705   2111JAGADIRI-JJP51704-1704010276            System.Byte[]
D0000623164890870057091705   2111JAGADIRI-JJP51705-1705011804            System.Byte[]
D0000624164201940065531523   2109JAGADIRI-JSPIB21703-1703007246          System.Byte[]
D0000625164201940065531523   2109JAGADIRI-JSPIB21704-1704010296          System.Byte[]
D0000626164201940065531523   2109JAGADIRI-JSPIB21705-1705011824          System.Byte[]
D0000627164890870050733725   1906JAGADIRI-JSK1703-1703007274             System.Byte[]
D0000628164890870050733725   1906JAGADIRI-JSK1704-1704010324             System.Byte[]
D0000629164890870050733725   1906JAGADIRI-JSK1705-1705011852             System.Byte[]
D0000630164890870058884165   2201JAGADIRI-JSK1703-1703007335             System.Byte[]
D0000631164890870058884165   2201JAGADIRI-JSK1704-1704010385             System.Byte[]
D0000632164890870058884165   2201JAGADIRI-JSK1705-1705011913             System.Byte[]
D0000633164201920084589991   2109JAGADIRI-JSPIB21703-1703007351          System.Byte[]
D0000634164201920084589991   2109JAGADIRI-JSPIB21704-1704010401          System.Byte[]
D0000635164201920084589991   2109JAGADIRI-JSPIB21705-1705011929          System.Byte[]
D0000636164890870069257252   2107JAGADIRI-JSK1703-1703007370             System.Byte[]
D0000637164890870069257252   2107JAGADIRI-JSK1704-1704010420             System.Byte[]
D0000638164890870069257252   2107JAGADIRI-JSK1705-1705011948             System.Byte[]
D0000639164201910399298701   1711JAGADIRI-JJP71704-1704002700            System.Byte[]
D0000640164201910399298701   1711JAGADIRI-JJP71705-1705012013            System.Byte[]
D0000641164201920149506808   2109JAGADIRI-JSK1704-1704002705             System.Byte[]
D0000642164201920149506808   2109JAGADIRI-JSK1705-1705012018             System.Byte[]
D0000643164262110060055078   1712JAGADIRI-JSPIB21704-1704002730          System.Byte[]
D0000644164262110060055078   1712JAGADIRI-JSPIB21705-1705012043          System.Byte[]
D0000645164201920126275450   1709JAGADIRI-JJP51704-1704002758            System.Byte[]
D0000646164201920126275450   1709JAGADIRI-JJP51705-1705012071            System.Byte[]
D0000647164201920068190584   2110JAGADIRI-JSK1704-1704002766             System.Byte[]
D0000648164201920068190584   2110JAGADIRI-JSK1705-1705012079             System.Byte[]
D0000649164201920058445428   1810JAGADIRI-JSK1704-1704002773             System.Byte[]
D0000650164201920058445428   1810JAGADIRI-JSK1705-1705012086             System.Byte[]
D0000651164890870052452696   2001JAGADIRI-JSK1704-1704002784             System.Byte[]
D0000652164890870052452696   2001JAGADIRI-JSK1705-1705012097             System.Byte[]
D0000653164201920076172400   1906JAGADIRI-JSPIB21704-1704002795          System.Byte[]
D0000654164201920076172400   1906JAGADIRI-JSPIB21705-1705012108          System.Byte[]
D0000655164890870057367378   2003JAGADIRI-JJP71704-1704002822            System.Byte[]
D0000656164890870057367378   2003JAGADIRI-JJP71705-1705012135            System.Byte[]
D0000657164201920078711841   2110JAGADIRI-JJP51704-1704002858            System.Byte[]
D0000658164201920078711841   2110JAGADIRI-JJP51705-1705012171            System.Byte[]
D0000659164201920093736690   2009JAGADIRI-JSK1704-1704002859             System.Byte[]
D0000660164201920093736690   2009JAGADIRI-JSK1705-1705012172             System.Byte[]
D0000661164201940061764599   2109JAGADIRI-JJP71704-1704002869            System.Byte[]
D0000662164201940061764599   2109JAGADIRI-JJP71705-1705012182            System.Byte[]
D0000663164890870052433787   2105JAGADIRI-JSK1704-1704002898             System.Byte[]
D0000664164890870052433787   2105JAGADIRI-JSK1705-1705012211             System.Byte[]
D0000665165242610053182633   2002JAGADIRI-JSK1704-1704002916             System.Byte[]
D0000666165242610053182633   2002JAGADIRI-JSK1705-1705012229             System.Byte[]
D0000667164890870050664185   1911JAGADIRI-JJP51704-1704002933            System.Byte[]
D0000668164890870050664185   1911JAGADIRI-JJP51705-1705012246            System.Byte[]
D0000669164262110060343193   2107JAGADIRI-JSPIB21704-1704002935          System.Byte[]
D0000670164262110060343193   2107JAGADIRI-JSPIB21705-1705012248          System.Byte[]
D0000671164201920144892377   2101JAGADIRI-JSPIB21704-1704002950          System.Byte[]
D0000672164201920144892377   2101JAGADIRI-JSPIB21705-1705012263          System.Byte[]
D0000673164201920065336479   2104JAGADIRI-JJP51704-1704002961            System.Byte[]
D0000674164201920065336479   2104JAGADIRI-JJP51705-1705012274            System.Byte[]
D0000675164201920058284462   2201JAGADIRI-JSPIB21704-1704002980          System.Byte[]
D0000676164201920058284462   2201JAGADIRI-JSPIB21705-1705012293          System.Byte[]
D0000677164201940055194662   2202JAGADIRI-JJP51704-1704002998            System.Byte[]
D0000678164201940055194662   2202JAGADIRI-JJP51705-1705012311            System.Byte[]
D0000679164262110060311299   2110JAGADIRI-JSPIB21704-1704003003          System.Byte[]
D0000680164262110060311299   2110JAGADIRI-JSPIB21705-1705012316          System.Byte[]
D0000681164201920051639027   1906JAGADIRI-JSPIB21704-1704003020          System.Byte[]
D0000682164201920051639027   1906JAGADIRI-JSPIB21705-1705012333          System.Byte[]
D0000683164201920088436595   2104JAGADIRI-JSPIB21704-1704003045          System.Byte[]
D0000684164201920088436595   2104JAGADIRI-JSPIB21705-1705012358          System.Byte[]
T000684000000000200233242                                                            
